{
  "contractName": "LandPlot",
  "abi": [
    {
      "constant": false,
      "inputs": [
        {
          "name": "currentOwner",
          "type": "address"
        }
      ],
      "name": "getPreviousOwner",
      "outputs": [
        {
          "name": "",
          "type": "address"
        }
      ],
      "payable": false,
      "stateMutability": "nonpayable",
      "type": "function"
    },
    {
      "constant": false,
      "inputs": [
        {
          "name": "_newOwner",
          "type": "address"
        }
      ],
      "name": "updateOwner",
      "outputs": [
        {
          "name": "",
          "type": "address"
        }
      ],
      "payable": false,
      "stateMutability": "nonpayable",
      "type": "function"
    },
    {
      "inputs": [
        {
          "name": "price",
          "type": "uint256"
        },
        {
          "name": "_id",
          "type": "bytes32"
        }
      ],
      "payable": false,
      "stateMutability": "nonpayable",
      "type": "constructor"
    },
    {
      "anonymous": false,
      "inputs": [
        {
          "indexed": false,
          "name": "newOwner",
          "type": "address"
        }
      ],
      "name": "UpdatedOwner",
      "type": "event"
    }
  ],
  "bytecode": "0x6060604052341561000f57600080fd5b60405160408061035883398101604052808051906020019091908051906020019091905050336000806101000a81548173ffffffffffffffffffffffffffffffffffffffff021916908373ffffffffffffffffffffffffffffffffffffffff16021790555081600181905550806002816000191690555050506102c1806100976000396000f30060606040526004361061004c576000357c0100000000000000000000000000000000000000000000000000000000900463ffffffff16806344945f4914610051578063880cdc31146100ca575b600080fd5b341561005c57600080fd5b610088600480803573ffffffffffffffffffffffffffffffffffffffff16906020019091905050610143565b604051808273ffffffffffffffffffffffffffffffffffffffff1673ffffffffffffffffffffffffffffffffffffffff16815260200191505060405180910390f35b34156100d557600080fd5b610101600480803573ffffffffffffffffffffffffffffffffffffffff169060200190919050506101ac565b604051808273ffffffffffffffffffffffffffffffffffffffff1673ffffffffffffffffffffffffffffffffffffffff16815260200191505060405180910390f35b6000600360008373ffffffffffffffffffffffffffffffffffffffff1673ffffffffffffffffffffffffffffffffffffffff16815260200190815260200160002060009054906101000a900473ffffffffffffffffffffffffffffffffffffffff169050919050565b6000816000806101000a81548173ffffffffffffffffffffffffffffffffffffffff021916908373ffffffffffffffffffffffffffffffffffffffff1602179055506000809054906101000a900473ffffffffffffffffffffffffffffffffffffffff16600360008473ffffffffffffffffffffffffffffffffffffffff1673ffffffffffffffffffffffffffffffffffffffff16815260200190815260200160002060006101000a81548173ffffffffffffffffffffffffffffffffffffffff021916908373ffffffffffffffffffffffffffffffffffffffff1602179055508190509190505600a165627a7a723058207d2d02e643b2365662c1b3e786e9c0a86ed299ec888848481d551573b6943f690029",
  "source": "pragma solidity ^0.4.17;\n\ncontract LandPlot {\n  address owner;\n  uint256 value; \n  bytes32 ID; \n  mapping (address => address) history; \n\n  function LandPlot(uint256 price, bytes32 _id) public {\n  owner = msg.sender;\n  value = price;\n  ID = _id;\n}\n\n  function updateOwner(address _newOwner) public returns(address) {\n    owner = _newOwner; \n    history[_newOwner] = owner; \n    return _newOwner; \n    UpdatedOwner(_newOwner);\n  }\n\nfunction getPreviousOwner(address currentOwner) public returns(address) {\n  return history[currentOwner];\n}\n\nevent UpdatedOwner(address newOwner);\n\n}\n",
  "sourcePath": "/Users/alexisgauba/Desktop/Tabula/contracts/LandPlot.sol",
  "compiler": {
    "name": "solc",
    "version": "0.4.18+commit.9cf6e910.Emscripten.clang"
  },
  "schemaVersion": "1.0.1",
  "updatedAt": "2017-11-27T20:32:53.980Z"
}