{
  "contractName": "Registry",
  "abi": [
    {
      "constant": false,
      "inputs": [
        {
          "name": "_id",
          "type": "bytes32"
        }
      ],
      "name": "buyPlot",
      "outputs": [],
      "payable": false,
      "stateMutability": "nonpayable",
      "type": "function"
    },
    {
      "constant": false,
      "inputs": [
        {
          "name": "_price",
          "type": "uint256"
        },
        {
          "name": "_id",
          "type": "bytes32"
        },
        {
          "name": "_owner",
          "type": "address"
        },
        {
          "name": "_newOwner",
          "type": "address"
        }
      ],
      "name": "addPlot",
      "outputs": [],
      "payable": false,
      "stateMutability": "nonpayable",
      "type": "function"
    },
    {
      "inputs": [],
      "payable": false,
      "stateMutability": "nonpayable",
      "type": "constructor"
    },
    {
      "anonymous": false,
      "inputs": [
        {
          "indexed": false,
          "name": "newOwner",
          "type": "address"
        },
        {
          "indexed": false,
          "name": "id",
          "type": "bytes32"
        }
      ],
      "name": "LogSold",
      "type": "event"
    }
  ],
  "bytecode": "0x6060604052341561000f57600080fd5b6108f28061001e6000396000f30060606040526004361061004c576000357c0100000000000000000000000000000000000000000000000000000000900463ffffffff168063871d4d741461005157806398f39d3514610078575b600080fd5b341561005c57600080fd5b6100766004808035600019169060200190919050506100e6565b005b341561008357600080fd5b6100e460048080359060200190919080356000191690602001909190803573ffffffffffffffffffffffffffffffffffffffff1690602001909190803573ffffffffffffffffffffffffffffffffffffffff16906020019091905050610441565b005b60003373ffffffffffffffffffffffffffffffffffffffff16313373ffffffffffffffffffffffffffffffffffffffff16318114151561012557600080fd5b600080846000191660001916815260200190815260200160002060010160009054906101000a900473ffffffffffffffffffffffffffffffffffffffff1673ffffffffffffffffffffffffffffffffffffffff166108fc349081150290604051600060405180830381858888f1935050505015156101a257600080fd5b33600080856000191660001916815260200190815260200160002060020160006101000a81548173ffffffffffffffffffffffffffffffffffffffff021916908373ffffffffffffffffffffffffffffffffffffffff16021790555060008084600019166000191681526020019081526020016000206003015460008085600019166000191681526020019081526020016000206000015461024261055e565b80838152602001826000191660001916815260200192505050604051809103906000f080151561027157600080fd5b91508173ffffffffffffffffffffffffffffffffffffffff1663880cdc31600080866000191660001916815260200190815260200160002060020160009054906101000a900473ffffffffffffffffffffffffffffffffffffffff166000604051602001526040518263ffffffff167c0100000000000000000000000000000000000000000000000000000000028152600401808273ffffffffffffffffffffffffffffffffffffffff1673ffffffffffffffffffffffffffffffffffffffff168152602001915050602060405180830381600087803b151561035357600080fd5b6102c65a03f1151561036457600080fd5b50505060405180519050507f350e2c93698a6509e330bf45b4310fec20c25d3868d0cba02d9de3d10445686f600080856000191660001916815260200190815260200160002060020160009054906101000a900473ffffffffffffffffffffffffffffffffffffffff16600080866000191660001916815260200190815260200160002060000154604051808373ffffffffffffffffffffffffffffffffffffffff1673ffffffffffffffffffffffffffffffffffffffff16815260200182600019166000191681526020019250505060405180910390a1505050565b608060405190810160405280846000191681526020018373ffffffffffffffffffffffffffffffffffffffff1681526020018273ffffffffffffffffffffffffffffffffffffffff1681526020018581525060008085600019166000191681526020019081526020016000206000820151816000019060001916905560208201518160010160006101000a81548173ffffffffffffffffffffffffffffffffffffffff021916908373ffffffffffffffffffffffffffffffffffffffff16021790555060408201518160020160006101000a81548173ffffffffffffffffffffffffffffffffffffffff021916908373ffffffffffffffffffffffffffffffffffffffff1602179055506060820151816003015590505050505050565b6040516103588061056f8339019056006060604052341561000f57600080fd5b60405160408061035883398101604052808051906020019091908051906020019091905050336000806101000a81548173ffffffffffffffffffffffffffffffffffffffff021916908373ffffffffffffffffffffffffffffffffffffffff16021790555081600181905550806002816000191690555050506102c1806100976000396000f30060606040526004361061004c576000357c0100000000000000000000000000000000000000000000000000000000900463ffffffff16806344945f4914610051578063880cdc31146100ca575b600080fd5b341561005c57600080fd5b610088600480803573ffffffffffffffffffffffffffffffffffffffff16906020019091905050610143565b604051808273ffffffffffffffffffffffffffffffffffffffff1673ffffffffffffffffffffffffffffffffffffffff16815260200191505060405180910390f35b34156100d557600080fd5b610101600480803573ffffffffffffffffffffffffffffffffffffffff169060200190919050506101ac565b604051808273ffffffffffffffffffffffffffffffffffffffff1673ffffffffffffffffffffffffffffffffffffffff16815260200191505060405180910390f35b6000600360008373ffffffffffffffffffffffffffffffffffffffff1673ffffffffffffffffffffffffffffffffffffffff16815260200190815260200160002060009054906101000a900473ffffffffffffffffffffffffffffffffffffffff169050919050565b6000816000806101000a81548173ffffffffffffffffffffffffffffffffffffffff021916908373ffffffffffffffffffffffffffffffffffffffff1602179055506000809054906101000a900473ffffffffffffffffffffffffffffffffffffffff16600360008473ffffffffffffffffffffffffffffffffffffffff1673ffffffffffffffffffffffffffffffffffffffff16815260200190815260200160002060006101000a81548173ffffffffffffffffffffffffffffffffffffffff021916908373ffffffffffffffffffffffffffffffffffffffff1602179055508190509190505600a165627a7a723058207d2d02e643b2365662c1b3e786e9c0a86ed299ec888848481d551573b6943f690029a165627a7a72305820c3c794e34a290f1609fd4bf482c11bae36d8aada34b1df0265c9ef9e5aeb27740029",
  "source": "pragma solidity ^0.4.17;\n\nimport \"./LandPlot.sol\";\n\ncontract Registry {\n    mapping (bytes32 => Plot) plots;\n\n    struct Plot {\n        bytes32 ID; \n        address owner; \n        address newOwner; \n        uint256 value;\n    }\n\n    modifier checkValue(uint amount) {\n        require(amount == msg.sender.balance);\n        _;\n    }\n\n    function Registry() public {\n    }\n\n    function addPlot(uint256 _price, bytes32 _id, address _owner, address _newOwner) public {\n\t    plots[_id] = Plot(_id, _owner, _newOwner, _price);\n    } \n\n    function buyPlot(bytes32 _id) checkValue(msg.sender.balance) public {\n      plots[_id].owner.transfer(msg.value);\n      plots[_id].newOwner = msg.sender;\n      LandPlot p = new LandPlot(plots[_id].value, plots[_id].ID);\n      p.updateOwner(plots[_id].newOwner);\n      LogSold(plots[_id].newOwner, plots[_id].ID);\n    }\n\n    event LogSold(address newOwner, bytes32 id);\n\n} ",
  "sourcePath": "/Users/alexisgauba/Desktop/Tabula/contracts/Registry.sol",
  "compiler": {
    "name": "solc",
    "version": "0.4.18+commit.9cf6e910.Emscripten.clang"
  },
  "schemaVersion": "1.0.1",
  "updatedAt": "2017-11-27T20:32:53.985Z"
}